{
  "contractName": "Claim",
  "abi": [
    {
      "constant": false,
      "inputs": [
        {
          "name": "ssp",
          "type": "address"
        }
      ],
      "name": "publisher_add_supply_side_partner",
      "outputs": [],
      "payable": false,
      "stateMutability": "nonpayable",
      "type": "function"
    },
    {
      "constant": false,
      "inputs": [
        {
          "name": "ssp",
          "type": "address"
        }
      ],
      "name": "publisher_delete_supply_side_partner",
      "outputs": [],
      "payable": false,
      "stateMutability": "nonpayable",
      "type": "function"
    },
    {
      "constant": false,
      "inputs": [
        {
          "name": "publisher",
          "type": "address"
        }
      ],
      "name": "ssp_approve_publisher",
      "outputs": [],
      "payable": false,
      "stateMutability": "nonpayable",
      "type": "function"
    },
    {
      "constant": false,
      "inputs": [
        {
          "name": "publisher",
          "type": "address"
        }
      ],
      "name": "ssp_delete_publisher",
      "outputs": [],
      "payable": false,
      "stateMutability": "nonpayable",
      "type": "function"
    }
  ],
  "bytecode": "0x6060604052341561000f57600080fd5b6107e58061001e6000396000f300606060405260043610610062576000357c0100000000000000000000000000000000000000000000000000000000900463ffffffff1680633de5b60614610067578063792f4f2b146100a0578063c4269713146100d9578063c6449a3014610112575b600080fd5b341561007257600080fd5b61009e600480803573ffffffffffffffffffffffffffffffffffffffff1690602001909190505061014b565b005b34156100ab57600080fd5b6100d7600480803573ffffffffffffffffffffffffffffffffffffffff169060200190919050506102d1565b005b34156100e457600080fd5b610110600480803573ffffffffffffffffffffffffffffffffffffffff169060200190919050506104ec565b005b341561011d57600080fd5b610149600480803573ffffffffffffffffffffffffffffffffffffffff169060200190919050506104ff565b005b600080339150600090505b6000808473ffffffffffffffffffffffffffffffffffffffff1673ffffffffffffffffffffffffffffffffffffffff168152602001908152602001600020805490508110156102cc576000808473ffffffffffffffffffffffffffffffffffffffff1673ffffffffffffffffffffffffffffffffffffffff168152602001908152602001600020818154811015156101ea57fe5b906000526020600020900160000160009054906101000a900473ffffffffffffffffffffffffffffffffffffffff1673ffffffffffffffffffffffffffffffffffffffff168273ffffffffffffffffffffffffffffffffffffffff1614156102bf5760016000808573ffffffffffffffffffffffffffffffffffffffff1673ffffffffffffffffffffffffffffffffffffffff1681526020019081526020016000208281548110151561029957fe5b906000526020600020900160000160146101000a81548160ff0219169083151502179055505b8080600101915050610156565b505050565b600080339150600090505b6000808373ffffffffffffffffffffffffffffffffffffffff1673ffffffffffffffffffffffffffffffffffffffff168152602001908152602001600020805490508110156103ed576000808373ffffffffffffffffffffffffffffffffffffffff1673ffffffffffffffffffffffffffffffffffffffff1681526020019081526020016000208181548110151561037057fe5b906000526020600020900160000160009054906101000a900473ffffffffffffffffffffffffffffffffffffffff1673ffffffffffffffffffffffffffffffffffffffff168373ffffffffffffffffffffffffffffffffffffffff1614156103e057600015156103df57600080fd5b5b80806001019150506102dc565b6000808373ffffffffffffffffffffffffffffffffffffffff1673ffffffffffffffffffffffffffffffffffffffff168152602001908152602001600020805480600101828161043d9190610707565b9160005260206000209001600060408051908101604052808773ffffffffffffffffffffffffffffffffffffffff16815260200160001515815250909190915060008201518160000160006101000a81548173ffffffffffffffffffffffffffffffffffffffff021916908373ffffffffffffffffffffffffffffffffffffffff16021790555060208201518160000160146101000a81548160ff021916908315150217905550505050505050565b60003390506104fb8282610512565b5050565b600033905061050e8183610512565b5050565b60008090505b6000808473ffffffffffffffffffffffffffffffffffffffff1673ffffffffffffffffffffffffffffffffffffffff16815260200190815260200160002080549050811015610702576000808473ffffffffffffffffffffffffffffffffffffffff1673ffffffffffffffffffffffffffffffffffffffff168152602001908152602001600020818154811015156105ac57fe5b906000526020600020900160000160009054906101000a900473ffffffffffffffffffffffffffffffffffffffff1673ffffffffffffffffffffffffffffffffffffffff168273ffffffffffffffffffffffffffffffffffffffff1614156106f5576000808473ffffffffffffffffffffffffffffffffffffffff1673ffffffffffffffffffffffffffffffffffffffff1681526020019081526020016000208181548110151561065957fe5b9060005260206000209001600080820160006101000a81549073ffffffffffffffffffffffffffffffffffffffff02191690556000820160146101000a81549060ff021916905550506000808473ffffffffffffffffffffffffffffffffffffffff1673ffffffffffffffffffffffffffffffffffffffff1681526020019081526020016000208054809190600190036106f39190610733565b505b8080600101915050610518565b505050565b81548183558181151161072e5781836000526020600020918201910161072d919061075f565b5b505050565b81548183558181151161075a57818360005260206000209182019101610759919061075f565b5b505050565b6107b691905b808211156107b257600080820160006101000a81549073ffffffffffffffffffffffffffffffffffffffff02191690556000820160146101000a81549060ff021916905550600101610765565b5090565b905600a165627a7a723058207bcefdf62727854113dd5f0294f44bc39a9e2ef268bf8f910c662096786651da0029",
  "source": "pragma solidity ^0.4.11;\n\ncontract Claim {\n\n    struct SSP {\n        address public_address;\n        bool approved;\n    }\n\n    mapping(address => SSP[]) whitelist;\n\n    function publisher_add_supply_side_partner(address ssp) public {\n\n        address publisher = msg.sender;\n        \n        // Does the SSP already exists?\n        for(uint i = 0; i < whitelist[publisher].length; i++) {\n            if(ssp == whitelist[publisher][i].public_address) {\n                // Stop execution if the SSP already exists\n                require(false); \n            }\n        }\n\n        whitelist[publisher].push(SSP({\n            public_address: ssp,\n            approved: false\n        }));\n    }\n\n    function publisher_delete_supply_side_partner(address ssp) public {\n        address publisher = msg.sender;\n        remove(publisher, ssp);\n    }\n\n    function ssp_approve_publisher(address publisher) public {\n        address ssp = msg.sender;\n        for(uint i = 0; i < whitelist[publisher].length; i++) {\n            if(ssp == whitelist[publisher][i].public_address) {\n                whitelist[publisher][i].approved = true;\n            }\n        }\n    }\n\n    function ssp_delete_publisher(address publisher) public {\n        address ssp = msg.sender;\n        remove(publisher, ssp);\n    }\n\n    function remove(address publisher, address ssp) private {\n        for(uint i = 0; i < whitelist[publisher].length; i++) {\n            if(ssp == whitelist[publisher][i].public_address) {\n                delete whitelist[publisher][i];\n                whitelist[publisher].length--;\n            }\n        }\n    }\n}\n",
  "sourcePath": "/home/vagrant/claim/claim.iabdenmark.dk/ClaimTxt/contracts/Claim.sol",
  "compiler": {
    "name": "solc",
    "version": "0.4.19+commit.c4cbbb05.Emscripten.clang"
  },
  "schemaVersion": "1.0.1",
  "updatedAt": "2018-02-26T13:07:10.461Z"
}